:020000040800F2
:1000000030120020010100089D0C0008C9080008FA
:10001000990C00081D0400082719000800000000C2
:10002000000000000000000000000000ED120008C9
:10003000E505000800000000EF10000801140008AA
:100040001B0100081B0100081B0100081B01000820
:100050001B0100081B0100081B0100081B01000810
:100060001B0100081B0100081B0100081B01000800
:100070001B0100081B0100081B0100081B010008F0
:100080001B0100081B0100081B0100081B010008E0
:100090001B0100081B0100081B0100081B010008D0
:1000A0001B0100081B0100081B0100081B010008C0
:1000B0001B0100081B0100081B0100081B010008B0
:1000C0001B0100081B0100081B0100081B010008A0
:1000D0001B010008A11400081B010008D915000825
:1000E0001B0100081B0100081B010008DFF80CD0F1
:1000F00000F040F80048004735200008301200208A
:100100000648804706480047FEE7FEE7FEE7FEE7B1
:10011000FEE7FEE7FEE7FEE7FEE7FEE74114000824
:10012000ED00000830B505462A460B4612F8010BD3
:1001300013F8014B08B1A042F8D01CB1002802D03E
:100140006D1CF1E7284630BD30B50B460146002056
:100150002022012409E021FA02F59D4205D303FA89
:1001600002F5491B04FA02F52844151EA2F101020A
:10017000F1DC30BD064C074D06E0E06840F00103BD
:1001800094E8070098471034AC42F6D3FFF7B2FF6B
:10019000184100083841000821B1826842F001028C
:1001A000826003E0826822F00102826070470146AB
:1001B00000208A6802F004020AB1012000E0002059
:1001C00070470146C86C80B2704702460020136831
:1001D0000B400BB1012000E00020704701460020D9
:1001E0008A6802F008020AB1012000E0002070478E
:1001F00030B502460020002350680F4C20400D7996
:100200000C6844EA05242043506090680B4C204061
:10021000D1E902542C434D7944EA450420439060CF
:10022000D06A20F470000C7C641EE4B2234340EAE0
:100230000350D06230BD0000FFFEF0FFFDF7F1FF7C
:10024000F0B504460D4600200021092D11DDE068BF
:10025000A5F10A0606EB4607072606FA07F18843CA
:10026000A5F10A0606EB460603FA06F10843E0602C
:100270000CE0206905EB4507072606FA07F18843DD
:1002800005EB450603FA06F108432061072A0FDA59
:10029000606B561E06EB86071F2606FA07F1884399
:1002A000561E06EB860605FA06F10843606322E057
:1002B0000D2A0FDA206BD61F06EB86071F2606FADB
:1002C00007F18843D61F06EB860605FA06F10843B8
:1002D000206310E0E06AA2F10D0606EB86071F26F8
:1002E00006FA07F18843A2F10D0606EB860605FA29
:1002F00006F10843E062F0BD816841F008018160C9
:10030000704721B1826842F4A002826003E08268F3
:1003100022F4A00282607047816841F0040181608C
:100320007047000000B587B001214FF4027000F063
:10033000FBFE4FF4004000F0DBFE0220ADF8180099
:1003400000208DF81B0003208DF81A0006A918481C
:1003500000F0B8F9002001908DF808008DF8090030
:100360004FF4602003900020049001208DF81400C9
:1003700001A91048FFF73CFF01210E48FFF70CFFD1
:100380000C48FFF7B9FF00BF0A48FFF727FF002816
:10039000FAD10848FFF7C0FF00BF0648FFF707FF84
:1003A0000028FAD101210348FFF7ABFF07B000BDD9
:1003B000000C01400024014070B505460C460AE0DF
:1003C0000848006808B9012000E0002005490860DD
:1003D000204601F0C5FD281EA5F10101CDB2EFD1E7
:1003E00070BD00008081214208B50121082000F085
:1003F0009BFE0120ADF8000010208DF803000320C3
:100400008DF802006946044800F05CF901210248B9
:1004100000F02CFA08BD0000000C014000BFFEE710
:1004200010B5002400F024F804E0601CC4B20120E0
:1004300001F096FD0D48006808B1642CF5DB642CD2
:1004400001DB012010BD002404E0601CC4B20120C7
:1004500001F086FD0548006808B9642CF5DB642CC2
:1004600001DB0120EEE70020ECE700002001214243
:1004700008B54FF48070ADF8000048208DF80300F7
:100480006946024800F01EF908BD0000000801405E
:1004900008B54FF48070ADF8000010208DF803000F
:1004A00003208DF802006946014800F00BF908BDF1
:1004B0000008014008B50121042000F035FE4FF48A
:1004C0008070ADF8000010208DF8030003208DF837
:1004D00002006946064800F0F5F84FF480710448C0
:1004E00000F0C6F900F068F8FFF79AFF08BD0000B9
:1004F0000008014010B5002404E0601CC4B20120D3
:1005000001F02EFD0D48006808B1642CF5DB0024D5
:1005100004E0601CC4B2012001F022FD074800681D
:1005200008B9642CF5DB282001F01AFD03480068A7
:1005300008B1012010BD0020FCE70000200121428D
:1005400070B50024002506E06006040EFFF7D2FF18
:100550000443681CC5B2082DF6DB204670BD7CB58F
:1005600005460E4600F028F8FFF75AFFF8B90024B8
:1005700005E0FFF7E5FF0DF80400601CC4B2052C90
:10058000F7DB9DF800009DF8011008449DF802106B
:1005900008449DF8031008449DF80410884208D1CF
:1005A0009DF8000030709DF80200287001E00120E5
:1005B0007CBD0020FCE7000010B5FFF769FF0020BC
:1005C00006490860142001F0A5FC01200449C1F887
:1005D000A0011E2001F0C4FC10BD0000A0012142BA
:1005E000000021427047000010B50446012C04D1E0
:1005F000C103054800F03CF904E04FF40041024813
:1006000000F034F910BD0000000801402DE9F04170
:1006100006460C4615461F462548B0F800046FF301
:100620000E002349A1F80004324622A1234801F01C
:1006300011F81CB915B90120BDE8F081B8B201F07C
:1006400069FC00201A49B1F80014C1F30E01184AE0
:10065000505411461AA001F0F7F9B4B1ADB12146DA
:100660001348FFF75FFD08B1012000E0002040B90A
:1006700029460F48FFF756FD08B1012000E0002091
:1006800008B10120D8E70020D6E744B12146084848
:10069000FFF748FD08B10120CEE70020CCE729464E
:1006A0000348FFF73FFD08B10120C5E70020C3E77D
:1006B0006409002025730D0A000000000048004076
:1006C000257300002DE9F041024600250026002098
:1006D00000230024002791F803C00CF00F0591F8C7
:1006E00003C00CF0100CBCF1000F03D091F802C055
:1006F0004CEA050591F800C0BCF1000F31D0146838
:1007000000202BE04FF0010C0CFA00F3B1F800C010
:100710000CEA03069E4220D183004FF00F0C0CFA26
:1007200003F7BC4305FA03FC4CEA040491F803C048
:10073000BCF1280F06D14FF0010C0CFA00FCC2F8F6
:1007400014C00AE091F803C0BCF1480F05D14FF086
:10075000010C0CFA00FCC2F810C0401C0828D1D3D0
:100760001460B1F800C0BCF1FF0F34DD5468002004
:100770002EE000F1080C4FF0010808FA0CF3B1F874
:1007800000C00CEA03069E4221D183004FF00F0CFB
:100790000CFA03F7BC4305FA03FC4CEA040491F895
:1007A00003C0BCF1280F05D100F1080C08FA0CF8C1
:1007B000C2F8148091F803C0BCF1480F07D100F1D2
:1007C000080C4FF0010808FA0CF8C2F81080401C21
:1007D0000828CED35460BDE8F0810000F0B50A4689
:1007E000002300240021002500F00046B6F1004F50
:1007F00002D11D4EF16901E01B4E7168C0F3034543
:1008000083B200F44016B6F5401F08D121F07061A4
:10081000154E766826F07066134F7E6012E000F485
:100820008016B6F5801F06D1032606FA05F4A1430B
:1008300041F0706106E0460D360103FA06F6B14359
:1008400041F0706122B1460D360103FA06F63143DC
:1008500000F00046B6F1004F02D1034EF16101E015
:10086000014E7160F0BD0000000001404161704721
:10087000016170472DE9F04105460C46002607232B
:10088000012229460F48FFF7DBFC002713E0012176
:100890000C48FFF736FD00BF02210A48FFF795FC20
:1008A0000028F9D00748FFF78CFC0644052001F02A
:1008B00031FB781CC7B2A742E9DBB6FBF4F080B28B
:1008C000BDE8F0810024014000BFFEE708B501212A
:1008D000082000F029FC4020ADF8000003208DF82E
:1008E000020010208DF8030069460848FFF7EAFE71
:1008F0008020ADF8000069460448FFF7E3FE0120C0
:10090000034908600349C1F89C0108BD000C01407F
:10091000988121420080214270B5044600F08CFC91
:10092000002014490860002520E004F08000002821
:1009300004DD01200F49091D086003E000200D4976
:10094000091D08606006040E022001F009FB012069
:1009500008490860022001F003FB00200649C1F8A5
:100960009801022001F0FCFA681CC5B2082DDCDBFE
:1009700070BD0000988121420080214210B500F036
:100980005BFC0120094908600949C1F8980105206C
:1009900001F0E6FA002005490860062001F0E0FABF
:1009A00000200349C1F8980110BD00009C8121423C
:1009B0000080214210B500F03FFC0020094908608A
:1009C0000949C1F89C01012006490860062001F090
:1009D000C7FA01200449C1F89C01062001F0C0FAC1
:1009E00010BD0000988121420080214210B50024F2
:1009F00001200F49086001F0B3FA00F00FFC01205C
:100A00000C49C1F8980101F0ABFA07E0601CC4B2D0
:100A1000FA2C03DDFFF7CEFF012010BD044880381B
:100A200000680028F2D10249091F086000BFF4E7FE
:100A30009C8121420080214208B50121042000F060
:100A400073FB0121042000F06FFB0121042000F062
:100A50006BFB0121042000F067FB0121084600F038
:100A600063FB01211548FFF7B9FE01211448FFF788
:100A7000B5FE4FF40040ADF8000048208DF80300AB
:100A800069461048FFF71EFE4FF48040ADF80000A5
:100A900069460C48FFF716FE4FF40050ADF8000011
:100AA00069460848FFF70EFE4FF48050ADF800008D
:100AB00069460448FFF706FE08BD0000000230004A
:100AC000000430000008014010B50446012C01D19B
:100AD000244908702348007801282BD12248006857
:100AE00058B12148001F006838B11F480838006815
:100AF00018B11D480C380068E0B90A2001F00AFA64
:100B00000020184908701848006808B9012010BD75
:100B10001548001F006808B90220F8E71248083895
:100B2000006808B90320F2E70F480C380068B0B934
:100B30000420ECE70C480068012810D10A48001F87
:100B4000006801280BD1084808380068012806D140
:100B500005480C380068012801D1024908700020BE
:100B6000D5E70000440000203C01214208B50121E6
:100B7000102000F0D9FA0121042000F0D5FA01215B
:100B8000042000F0D1FA0121042000F0CDFA012167
:100B9000042000F0C9FA0121042000F0C5FA012167
:100BA000042000F0C1FA0121042000F0BDFA012167
:100BB000042000F0B9FA4FF40050ADF80000102006
:100BC0008DF8030003208DF8020069463048FFF7D6
:100BD00079FD4FF400512E48FFF74AFE0120ADF891
:100BE000000069462B48FFF76DFD01212948FFF7FA
:100BF0003FFE0220ADF8000069462648FFF762FD7F
:100C000002212448FFF734FE0420ADF800006946B5
:100C10002048FFF757FD04211E48FFF729FE082052
:100C2000ADF8000069461B48FFF74CFD0821194844
:100C3000FFF71EFE1020ADF8000069461548FFF7CB
:100C400041FD10211348FFF713FE2020ADF80000EE
:100C500069461048FFF736FD20210E48FFF708FED1
:100C60004020ADF8000069460A48FFF72BFD4021FF
:100C70000848FFF7FDFD8020ADF8000069460548F3
:100C8000FFF720FD80210348FFF7F2FD08BD0000BB
:100C9000001001400008014000BFFEE7704700005F
:100CA00070B5002100230F22C47804B3154C2468CA
:100CB00004F4E064C4F5E064210AC1F10403CA400D
:100CC000447804FA03F184781440214309010E4C5E
:100CD0000678A155047804F01F050124AC4005787E
:100CE0006D11AD0005F1E025C5F8004109E004787B
:100CF00004F01F050124AC40044D0678761145F838
:100D0000264070BD0CED00E000E400E080E100E072
:100D100002490143024A1160704700000000FA05D1
:100D20000CED00E070B500240CE0002506E000208A
:100D3000074901EBC5010855681CC5B2802DF6DBDB
:100D4000601CC4B2082CF0DB00F0A2F870BD0000FB
:100D500064050020F0B5144600267F2801DC3F29F9
:100D600000DDF0BD0B46CF1701EB5777FF10C7F141
:100D70000707FAB2CF1701EB5777FF10A1EBC707B0
:100D8000FDB2C5F107070123BB40DEB24CB10A4BEF
:100D900003EBC0039B5C3343074F07EBC007BB5417
:100DA00008E0054B03EBC0039B5CB343024F07EB2A
:100DB000C007BB5400BFD4E76405002010B5FFF79F
:100DC00085FD0021AE2000F086F90021D52000F03D
:100DD00082F90021502000F07EF90021A82000F0C7
:100DE0007AF900213F2000F076F90021D32000F0AD
:100DF00072F90021084600F06EF90021402000F051
:100E00006AF900218D2000F066F90021142000F01D
:100E100062F90021202000F05EF90021022000F09C
:100E20005AF90021A12000F056F90021C02000F05D
:100E300052F90021DA2000F04EF90021122000F0D2
:100E40004AF90021812000F046F90021EF2000F04E
:100E500042F90021D92000F03EF90021F12000F0F4
:100E60003AF90021DB2000F036F90021302000F0B3
:100E700032F90021A42000F02EF90021A62000F074
:100E80002AF90021AF2000F026F9FFF74BFF10BD33
:100E900070B507241AE004F1B001C8B2002100F0D7
:100EA0001AF90021084600F016F90021102000F080
:100EB00012F9002507E0074901EBC501085D012192
:100EC00000F009F96D1C802DF5DB641E002CE2DAC0
:100ED00070BD0000640500202DE9F84F80460F46E4
:100EE00016461C46BA462046E31704EB5373DB1044
:100EF00021464FEAE47C04EB5C7C4FEAEC0CA4EB6B
:100F0000CC0CBCF1000F02D04FF0010C01E04FF00F
:100F1000000C6344224604EBD27C4FEA6C0C03FBCA
:100F20000CF303F0FF0BA6F12000C6B200254EE043
:100F30000C2C07D106EB4600274901EB8000405DF1
:100F4000009013E0102C05D1244800EB0610405D02
:100F500000900BE0182C07D106EBC600204901EBEE
:100F60008000405D009001E0BDE8F88F4FF000097F
:100F700027E0009800F0800028B1394640460A9AE0
:100F8000FFF7E8FE09E00A9808B9012000E0002018
:100F9000024639464046FFF7DDFE00984006000E47
:100FA0000090781CC7B2A7EB0A00A04205D15746B3
:100FB00008F1010000F0FF0806E009F1010000F06F
:100FC000FF09B9F1080FD4DB00BF681CC5B25D454D
:100FD000AEDB00BFC8E70000EC270008602C00086B
:100FE000503200082DE9FF4F81B0074691461E465A
:100FF0000E9D4FF0000A002439E0301B401EC1B2A4
:101000000A2001F089F9B9FBF0F00A21B0FBF1F2F6
:1010100001FB1208BAF1000F16D1701EA04213DDB9
:10102000B8F1000F0ED10120AB4605EBDB71491082
:1010300001FB04710090C8B22B4620220299FFF7F1
:101040004BFF12E04FF0010A0120AB4605EBDB71CC
:10105000491001FB04710090C8B208F13001CAB216
:101060002B460299FFF738FF00BF601CC4B2B442A0
:10107000C3DB05B0BDE8F08FF8B506460F46154650
:101080001C4621E004EBD4714910C1F18001B1424A
:1010900002DA00263819C7B2C4F14000B84204DAB7
:1010A000002006460746FFF73DFE012000902A7803
:1010B000234639463046FFF70FFF204604EBD07138
:1010C00006EB6101CEB26D1C28787E2802DC287800
:1010D0002028D7DAF8BD70B505460C461CB1284665
:1010E00001F06EFB02E0284601F054FB70BD704732
:1010F00001460020034A506820F4404008435060F5
:10110000704700000010024029B1064AD26902432C
:10111000044BDA6104E0034AD2698243014BDA618D
:10112000704700000010024029B1064A926902434C
:10113000044B9A6104E0034A92698243014B9A612D
:10114000704700000010024030B50021002200244A
:1011500000232D4D6D6805F00C0121B1042905D047
:10116000082923D105E0294D056022E0274D0560BF
:101170001FE0254D6D6805F47012234D6D6805F470
:101180008034022505EB92421CB9214D5543056080
:101190000BE01D4D6D6805F400351DB11C4D554328
:1011A000056002E0194D5543056002E0174D0560EA
:1011B00000BF00BF144D6D6805F0F0010909154D21
:1011C0006B5C0568DD4045600F4D6D6805F4E061BE
:1011D000090A104D6B5C4568DD4085600A4D6D68FD
:1011E00005F46051C90A0B4D6B5C4568DD40C56074
:1011F000054D6D6805F44041890B074D6B5CC56872
:10120000B5FBF3F5056130BD0010024000127A0015
:1012100000093D00300000204000002008B580207B
:10122000ADF8000048208DF8030069460148FFF73B
:1012300049FA08BD000C014008B58020ADF8000057
:1012400003208DF8020010208DF803006946024843
:10125000FFF738FA08BD0000000C014008B5012175
:101260000820FFF761FF01210820FFF75DFF012142
:101270000820FFF759FF01210420FFF755FF012146
:101280000846FFF751FF01211448FFF7A7FA012193
:101290001348FFF7A3FA2020ADF8000010208DF8C6
:1012A000030003208DF8020069460E48FFF70AFA92
:1012B0001020ADF8000069460A48FFF703FA08203D
:1012C000ADF8000069460748FFF7FCF9FF20ADF8CC
:1012D000000069460448FFF7F5F908BD0002300038
:1012E00000043000000C014000080140704710B5B8
:1012F00000F002F810BD00000CB500200190009035
:101300003348006840F480303149086000BF3048FD
:10131000006800F4003000900198401C0190009893
:1013200018B90198B0F5A06FF1D12948006800F410
:10133000003010B10120009001E0002000900098E2
:10134000012843D12348006840F01000214908607B
:101350000846006820F0030008600846006840F076
:10136000020008601A484068194948600846406809
:1013700048600846406840F480604860084640681D
:1013800020F47C1048600846406840F4E81048604B
:101390000846006840F08070086000BF0C48006894
:1013A00000F000700028F9D00948406820F00300E0
:1013B000074948600846406840F00200486000BFA6
:1013C0000348406800F00C000828F9D10CBD00006B
:1013D0000010024000200240042808D14FF0E02114
:1013E000096941F004014FF0E022116107E04FF07C
:1013F000E021096921F004014FF0E02211617047FA
:101400007047000010B504466FF00400FFF7E4FFDA
:10141000E11704EB5171C1F3C701074A117010467F
:10142000007800EB4001C1EBC0104FF6FF7101EAFC
:10143000C0000249088010BD46000020480000207E
:1014400010B51348006840F00100114908600846D3
:101450004068104908400E494860084600680E4937
:1014600008400B4908600846006820F480200860A6
:101470000846406820F4FE0048604FF41F00886072
:10148000FFF735FF4FF000600449086010BD000011
:10149000001002400000FFF8FFFFF6FE08ED00E03C
:1014A00010B540F225511D4800F079F910B31B48E2
:1014B00000F030FAC4B21A48008800F40040C8B9FD
:1014C0001748008800F4804060B10A2C03D0002047
:1014D0001349088020E01248008840F40040104979
:1014E000088019E00D2C06D10D48008840F480409A
:1014F0000B49088010E00A480088C0F30D00094934
:101500000C5407480088401C05490880084600889C
:10151000C72801DD0020088010BD00000038014010
:101520004A000020660D002010B586B00446012157
:101530000420FFF7F9FD01218803FFF7F5FD4FF4C3
:101540000070ADF8140003208DF8160018208DF8F7
:10155000170005A91E48FFF7B5F84FF48060ADF8F5
:10156000140004208DF8170005A91948FFF7AAF800
:1015700001940020ADF80800ADF80A00ADF80C00A9
:10158000ADF810000C20ADF80E0001A9114800F0D4
:1015900055F901210F4800F0E9F840210D4800F00D
:1015A000DCF8012240F225510A4800F022F92520FA
:1015B0008DF8000003208DF801008DF80200012055
:1015C0008DF803006846FFF76BFB06B010BD000006
:1015D000000801400038014010B540F225511B4879
:1015E00000F0DDF8D8B1194800F094F9C4B21848F9
:1015F000B0F80004C0F30E0040F2FF3188420EDA6A
:101600001349B1F80014C1F30E00411C104AB2F89E
:10161000002461F30E020E49A1F800240C5440F29C
:1016200024410A4800F0BBF801280DD10848B0F861
:10163000000420F4004000F500400549A1F8000432
:10164000024800F067F9C4B210BD00000048004035
:10165000640900200FB470B586B006460CA801904E
:1016600073E00B9800785C281CD10B98401C0B9001
:1016700000786E2809D072280FD10D21304600F075
:101680004EF90B98401C0B900BE00A21304600F0FD
:1016900046F90B98401C0B9003E00B98401C0B90F4
:1016A00000BF4BE00B980078252840D10B98401CD8
:1016B0000B900078642818D0732833D1019810C893
:1016C00001900BE02178304600F029F900BF80211D
:1016D000304600F057F80028F9D0641C2078002824
:1016E000F0D10B98401C0B9020E0019820C801908D
:1016F0000A2202A9284600F06BFC02AC0BE021781C
:10170000304600F00CF900BF8021304600F03AF876
:101710000028F9D0641C20780028F0D10B98401CD8
:101720000B9003E00B98401C0B9000BF06E00B9859
:1017300010F8011B0B90304600F0F1F800BF80213B
:10174000304600F01FF80028F9D00B9800780028E8
:1017500087D106B070BC5DF814FB01F40072B2F5DD
:10176000007F00D100BFCA430280704721B1828947
:1017700042F40052828104E082894DF6FF731A40E0
:101780008281704702460020B1F5007F00D100BF82
:1017900013880B400BB1012000E00020704770B5AA
:1017A0000246002400230025002040F66A16B142BC
:1017B00000D100BFC1F3421501F01F03012606FA54
:1017C00003F3012D02D19689334006E0022D02D1A8
:1017D000168A334001E0968A33400C12012606FA3D
:1017E00004F41688344013B10CB1012000E000204D
:1017F00070BDF0B50346002400260025002040F609
:101800006A17B94200D100BF1846C1F3421401F073
:101810001F06012707FA06F5012C01D10C3004E060
:10182000022C01D1103000E014301AB107682F43A8
:10183000076002E00768AF430760F0BD2DE9F0479D
:1018400086B005460E460024A24600BFA1460027EA
:10185000B08900B100BF2F462C8A4CF6FF700440BF
:10186000F08804432C82AC894EF6F3100440B08813
:1018700031890843718908430443AC81AC8A4FF62F
:10188000FF400440B0890443AC8201A8FFF75CFC30
:101890001F48874202D1DDF810A001E0DDF80CA05E
:1018A000A88900F4004040B10AEBCA0000EB0A101E
:1018B00031684900B0FBF1F807E00AEBCA0000EB21
:1018C0000A1031688900B0FBF1F86420B8FBF0F031
:1018D00004012009642101FB1089A88900F400405B
:1018E00040B1322000EBC900B0FBF1F000F007007E
:1018F000044308E0322000EB09106421B0FBF1F052
:1019000000F00F0004432C8106B0BDE8F087000012
:101910000038014001468888C0F308007047C1F3D1
:1019200008028280704700BFFEE7000000B587B064
:1019300001218804FFF7E8FB01210820FFF7F4FBF1
:1019400001210420FFF7F0FB01210846FFF7ECFB23
:1019500001213948FEF742FF0420ADF8180010209D
:101960008DF81B0003208DF81A0006A93348FEF7F6
:10197000A9FE4FF40040ADF8180010208DF81B00B0
:1019800003208DF81A0006A92D48FEF79BFE4FF4A0
:1019900000412B48FEF76AFF04212848FEF768FF44
:1019A0004FF48060ADF8180003208DF81A0018205D
:1019B0008DF81B0006A92148FEF784FE4FF4006055
:1019C000ADF8180004208DF81B0006A91B48FEF78F
:1019D00079FE4FF4E13002900020ADF80C00ADF834
:1019E0000E00ADF81000ADF814000C20ADF8120098
:1019F00002A91448FFF722FF012240F225511148A5
:101A0000FFF7F7FE012240F224410E48FFF7F1FEF6
:101A100001210C48FFF7AAFE27208DF804000020C2
:101A20008DF805008DF8060001208DF8070001A84B
:101A3000FFF736F907B000BD00023000000C01408E
:101A400000080140004800400FB4054B10B503A941
:101A5000044A029800F030F810BC5DF814FB000056
:101A6000AD1F00084C0000200FB41CB5024600203A
:101A700007AC00290BD0491ECDE90021054B6A4671
:101A80002146069800F018F8009A002111701CBC3D
:101A90005DF814FB711C000802E008C8121F08C1A1
:101AA000002AFAD170477047002001E001C1121FDF
:101AB000002AFBD1704700002DE9FF4F8BB09A46FA
:101AC0000F460546002606E025280BD052460D9904
:101AD00090476D1C761C28780028F5D10FB0304651
:101AE000BDE8F08F0024A0460122604900E00443D5
:101AF00015F8013F203B02FA03F00842F7D128789D
:101B00002E2817D115F8010F44F004042A280ED00E
:101B10006FF02F022878A0F1300109290AD808EBCC
:101B2000880102EB410100EB01086D1CF2E757F858
:101B3000048B6D1C287869283ED006DC0028CDD0A7
:101B400063280BD0642804D136E0732810D07528A0
:101B50004BD052460D999047761C85E017F8040B40
:101B60008DF8000000208DF80100E946012003E017
:101B700057F8049B4FF0FF3061074FF0000401D489
:101B80000AE0641C44450DDA8442FADB19F80410BB
:101B90000029F6D106E0641C8442FCDB19F804102D
:101BA0000029F8D1264404E019F8010B52460D999A
:101BB0009047641EF8D257E001CF4FF00A0B00287F
:101BC00002DA40422D2102E0210504D52B218DF8B7
:101BD0002410012103E0E10705D02021F7E70DF1F2
:101BE000200908910CE00021F9E701CF4FF00A0B22
:101BF000F9E75946FEF7A8FA01F1300209F8012D7C
:101C00000028F6D1ADEB090000F1200B600701D4EC
:101C10004FF00108D84502DDA8EB0B0000E00020E2
:101C20008046002406E009A85246005D0D999047C1
:101C3000641C761C08988442F5DB04E03020524690
:101C40000D999047761CB8F10001A8F10108F5DC68
:101C500005E019F8010B52460D999047761CBBF12F
:101C60000001ABF1010BF4DC6D1C34E70928010025
:101C70004A68002A06D00A68531C0B601070486836
:101C8000401E48607047000010B50C4800880C49A1
:101C90000988884205DC0B4800880B49098888427E
:101CA00007DD012009490870FE217D20FEF784FB35
:101CB00002E000200549087010BD0000100000205F
:101CC0001600002012000020180000201A0000203A
:101CD0001CB571497148FEF742FC0A210720FEF746
:101CE000C9FD6F490880084600886E496E4A12781F
:101CF00021F8120008460088498808446949898803
:101D000008446849C9880844664909890844052186
:101D100090FBF1F06549088008460088642148433B
:101D200040F6FF7190FBF1F05A3860490880084690
:101D30000088642801DD64200880052000F0EAF8AE
:101D40000A210820FEF796FD5949088008460088B8
:101D50005849554A127821F81200084600884988E7
:101D600008445449898808445249C988084451495B
:101D700009890844052190FBF1F04F490880084685
:101D800000886421484340F6FF7190FBF1F04A4916
:101D9000088008460088642801DD6420088005204A
:101DA00000F0B8F80A210920FEF764FD43490880D5
:101DB000084600886421484340F6FF7190FBF1F02B
:101DC0003E49088008460088642801DD64200880B8
:101DD0003A480088C0F164003849088032480078E9
:101DE000401C052190FBF1F201FB12002E49087006
:101DF0000C20022300902948027800211E20FFF7C2
:101E0000F1F80C2002230090234802780F211E20B5
:101E1000FFF7E8F80C2002230090284802881E21D2
:101E20000846FFF7DFF80C200223009022480288C2
:101E30002D211E20FFF7D6F80C20022300901B480E
:101E400002880F215A20FFF7CDF8FFF721F8174835
:101E5000008819490988CDE90010184803880E4800
:101E600002780E48017816A0FFF7EEFD0B480078C7
:101E70002349087008480078224908700E480088F5
:101E8000214908800D4800882049088007480088BB
:101E90001F4908801CBD00001C0000201B00002002
:101EA00028000020500500202400002022000020EF
:101EB000260000205A050020200000201E000020DF
:101EC000CEC2B6C83D202564252520CAAAB6C83D85
:101ED000202564252520B9E2D5D5C7BFB6C83D2544
:101EE00064252520D1CCCEEDC5A8B6C83D256425F6
:101EF0002520434FC5A8B6C83D256425250D0A00F9
:101F00000C0000200D000020100000200E0000201A
:101F1000120000200146114A12884A434FF0E02384
:101F20005A6100229A611A46126942F001021A614E
:101F300000BF4FF0E022106900F001021AB100F476
:101F40008032002AF5D04FF0E022126922F001021F
:101F50004FF0E0231A6100229A6170474800002088
:101F60000146114A12784A434FF0E0235A61002299
:101F70009A611A46126942F001021A6100BF4FF0DD
:101F8000E022106900F001021AB100F48032002A48
:101F9000F5D04FF0E022126922F001024FF0E02369
:101FA0001A6100229A6170474600002070B504460D
:101FB0000D46E1B20548FFF7B2FC00BF802103489F
:101FC000FFF7E0FB0028F9D0204670BD0038014043
:101FD000F0B503460D461646002729460A2E03D0C3
:101FE000002008702846F0BD33B9302001F8010BFD
:101FF000002008702846F6E7002B03DA2D2001F8B0
:10200000010B5B4242F210720DE093FBF2F404B953
:1020100037B104F1300001F8010B04FB1233012742
:102020000A2092FBF0F2002AEFDC0020087028461C
:10203000D9E700007CB50024002600254820FFF7E2
:10204000E1F9FEF793FDFEF7F7FC4820FFF7DAF918
:102050004FF4A060FEF75CFE4FF4E130FFF764FA46
:10206000FEF784FDFEF75EF9FEF7BEF9FEF7A6FE69
:10207000FFF7F4F8FFF75AFC0120FEF7B5FA0C233E
:1020800070A200210846FEF7F7FFFEF701FF20E0EF
:1020900070480068C0F10A016FA0FFF7D5FC0C235F
:1020A00073A200210846FEF7E7FFFEF7F1FE4FF4AA
:1020B000FA70FFF72FFF6748006850B971A0FFF76B
:1020C000C3FC0C2375A20F210020FEF7D5FF0120D1
:1020D0007CBDFEF7EFF938B15E4801680068401E2C
:1020E0005C4A10600029D3D170A0FFF7ADFCFE213F
:1020F0007D20FEF761F9FEF715FE0C2370A200218A
:102100000846FEF7B9FF0C2370A20F210020FEF74E
:10211000B3FF0C2370A21E210020FEF7ADFF0C239D
:1021200070A22D210020FEF7A7FF0C2370A20F2123
:102130003C20FEF7A1FFFEF7ABFE00F05DF980E06A
:10214000601CC4B20A2094FBF0F100FB114038B9C6
:102150006948006808B9012000E00020664908606D
:10216000142094FBF0F100FB114048B9634800686B
:1021700008B9012000E0002060490860FFF7A8FDD1
:102180001E2094FBF0F100FB114008B9FFF77CFD25
:102190000020FEF799FC0546012D06D0022D0FD038
:1021A000032D18D0042D32D123E05448103000689C
:1021B00008B9012000E0002050491031086026E0F5
:1021C0004E481430006808B9012000E000204B4957
:1021D000143108601BE049481830006808B9012034
:1021E00000E000204549183108600120444908708A
:1021F0000DE042481C30006808B9012000E00020D2
:102200003E491C31086000203D49087000BF00BFF6
:10221000322094FBF0F100FB114078B93848007887
:1022200038490988CDE900103748038837480288C3
:10223000374801783748007800F07AF80A20FFF72D
:1022400069FE7DE7444854313120496E69742E2E71
:102250002E0000002C0000204448543131204368F7
:1022600065636B204572726F72210D0A00000000D9
:10227000444854313120436865636B204572726F66
:1022800072210000445448313120496E697420465F
:1022900061696C65642E0D0A00000000496E697466
:1022A000204661696C656421000000004448543197
:1022B0003120436865636B204F4B210D0A000000FD
:1022C00054656D703A2020430000000048756D6928
:1022D0003A202025000000004C6967683A2020253C
:1022E00000000000536D6F6B3A20202500000000B5
:1022F000434F3A2020202500B40122428001214290
:102300001400002012000020100000200E00002009
:102310000D0000200C00002010B50246012000E056
:1023200050430B1EA1F10104E1B2F9D110BD000030
:102330002DE9F04786B004460D4616461F46DDE9F6
:102340000E89DFF84CA03346124A4FF480711248D0
:102350008DE830030497FFF787FB0F4853460FA221
:102360004FF4806100901448FFF77EFB41F2883300
:1023700012A214A11048FEF749F918B112A0FFF7F4
:1023800063FB02E016A0FFF75FFB06B0BDE8F08735
:1023900044400008904000085004002041542B4D58
:1023A0005154545055423D302C222573222C222565
:1023B00073222C312C300000500000204552524F27
:1023C000520000004F4B00004D5154542050756294
:1023D0006C6973682053756363657373210A000029
:1023E0004D515454205075626C6973682046616980
:1023F0006C6564210A0000001CB559A24FF480618D
:102400005A48FFF731FB40F6B83359A25AA1574852
:10241000FEF7FCF818B159A0FFF716FB03E05BA02C
:10242000FFF712FB1CBD4FF4FA70FFF773FD5B481A
:10243000006800905A485BA24FF4806103684B48E3
:10244000FFF712FB42F2107349A25BA14748FEF767
:10245000DDF818B15CA0FFF7F7FA03E05EA0FFF724
:10246000F3FADFE74FF47A70FFF754FD5E485FA19F
:1024700068A376A2CDE900104FF480613B48FFF7D6
:10248000F3FA40F6B8333AA23BA13848FEF7BEF85B
:1024900018B179A0FFF7D8FA03E07CA0FFF7D4FACF
:1024A000C0E74FF47A70FFF735FD5AA37CA24FF4D2
:1024B00080612E48FFF7D8FA40F6B8332CA22EA13F
:1024C0002A48FEF7A3F818B17BA0FFF7BDFA03E096
:1024D0007EA0FFF7B9FAA5E74FF47A70FFF71AFD6F
:1024E0007FA081A38FA24FF4806100901F48FFF767
:1024F000BBFA41F288331EA21FA11C48FEF786F8E2
:1025000018B18EA0FFF7A0FA03E090A0FFF79CFAA5
:1025100088E74FF47A70FFF7FDFC904890A24FF4E3
:10252000806103681148FFF79FFA40F6B83310A2A4
:1025300011A10E48FEF76AF818B18EA0FFF784FAD1
:1025400003E090A0FFF780FA6CE74FF47A70FFF792
:10255000E1FCFE217D20FDF72FFF00BF62E70000B8
:1025600041542B43574D4F44453D3100500000200E
:102570004552524F520000004F4B0000535441C986
:10258000E8D6C3B3C9B9A60A00000000535441C934
:10259000E8D6C3CAA7B0DC0A00000000040000208F
:1025A0000000002041542B43574A41503D222573DF
:1025B000222C2225732200005749464920434F4EC2
:1025C0004E4543544544000057694669C1ACBDD3EC
:1025D000B3C9B9A60A00000057694669C1ACBDD3AA
:1025E000CAA7B0DC0A000000004000083637633498
:1025F00036396330386530346161303639306239AC
:10260000383436655F31373431313630373533332E
:102610003132000036376334363963303865303450
:102620006161303639306239383436655F3137347C
:10263000313136303735333331325F305F305F32EE
:1026400030323530333037303400000041542B4DB8
:10265000515454555345524346473D302C312C225A
:102660002573222C222573222C222573222C302C18
:10267000302C2222000000004D515454C5E4D6C332
:10268000D3C3BBA7B3C9B9A60A0000004D51545427
:10269000C5E4D6C3D3C3BBA7CAA7B0DC0A000000F9
:1026A00041542B4D515454434C49454E5449443D9B
:1026B000302C2225732200004D51545420436C6964
:1026C000656E744944B3C9B9A60A00004D5154540B
:1026D00020436C69656E744944CAA7B0DC0A0000E7
:1026E00031383833000000006362353261613033C5
:1026F00062332E7374312E696F7464612D64657654
:102700006963652E636E2D6E6F7274682D342E6D45
:1027100079687561776569636C6F75642E636F6D39
:102720000000000041542B4D515454434F4E4E3D38
:10273000302C222573222C25732C31004D515454FA
:10274000C1ACBDD3B3C9B9A60A0000004D51545461
:10275000C1ACBDD3CAA7B0DC0A000000080000204D
:1027600041542B4D5154545355423D302C22257326
:10277000222C31004D515454B3C9B9A6B6A9D4C4C2
:102780000A0000004D515454CAA7B0DCB6A9D4C405
:102790000A00000010B50446FEF7F0F87820FEF7B6
:1027A000BBF8FEF723F90020FEF7B6F8FEF71EF996
:1027B0002046FEF7B1F8FEF719F9FEF7FBF810BD59
:1027C00010B50446FEF7DAF87820FEF7A5F8FEF714
:1027D0000DF94020FEF7A0F8FEF708F92046FEF7B5
:1027E0009BF8FEF703F9FEF7E5F810BD00000000C6
:1027F0000000000000000000000000003F4000005A
:1028000000000000000030004000300040000000E8
:1028100009000BC03D000BC03D00090018C024405A
:102820007FE0224031800000180024C01B000D8092
:102830003240018003801C4027401C80074000403C
:102840001000600000000000000000000000000018
:1028500000001F80204040200000402020401F80BA
:1028600000000000090006001F80060009000000AB
:10287000040004003F800400040000000010006019
:102880000000000000000000040004000400040038
:1028900004000000000000400000000000000000F4
:1028A000002001C006003800400000001F802040CA
:1028B000204020401F800000000010403FC000402A
:1028C0000000000018C021402240244018400000B1
:1028D00010802040244024401B80000002000D0096
:1028E00011003FC0014000003C80244024402440AF
:1028F000238000001F8024402440344003800000D7
:102900003000200027C03800200000001B80244039
:10291000244024401B8000001C0022C02240224092
:102920001F800000000000000840000000000000C0
:10293000000000000460000000000000000004002F
:102940000A00110020804040090009000900090028
:102950000900000000004040208011000A0004002F
:102960001800200023402400180000001F80204091
:10297000274029401F400000004007C039000F00D9
:1029800001C0004020403FC0244024401B80000084
:102990001F802040204020403080000020403FC069
:1029A000204020401F80000020403FC024402E4097
:1029B00030C0000020403FC024402E003000000006
:1029C0000F001080204022403380020020403FC092
:1029D000040004003FC02040204020403FC0204071
:1029E000204000000060202020203FC02000200068
:1029F00020403FC024400B0030C0204020403FC05A
:102A000020400040004000C03FC03C0003C03C00EC
:102A10003FC0000020403FC00C4023003FC02000CA
:102A20001F802040204020401F80000020403FC0E9
:102A300024402400180000001F802140214020E095
:102A40001FA0000020403FC02440260019C00040C5
:102A500018C0244024402240318000003000204033
:102A60003FC020403000000020003F800040004078
:102A70003F80200020003E0001C0070038002000F9
:102A8000380007C03C0007C038000000204039C0B3
:102A9000060039C0204000002000384007C0384000
:102AA00020000000304021C02640384020C00000F7
:102AB000000000007FE04020402000000000700087
:102AC0000C000380004000000000402040207FE018
:102AD0000000000000002000400020000000000076
:102AE0000010001000100010001000100000000086
:102AF000400000000000000000000280054005408A
:102B000003C0004020003FC0044004400380000098
:102B100000000380044004400640000000000380E1
:102B2000044024403FC000400000038005400540B1
:102B300003400000000004401FC024402440200047
:102B4000000002E0055005500650042020403FC020
:102B50000440040003C000400000044027C00040BF
:102B60000000000000100010041027E0000000002A
:102B700020403FC00140070004C0044020402040E6
:102B80003FC000400040000007C0040007C0040030
:102B900003C00000044007C00440040003C000401C
:102BA000000003800440044003800000041007F08C
:102BB00004500440038000000000038004400450DF
:102BC00007F00010044007C00240040004000000A9
:102BD000000006400540054004C00000000004005D
:102BE0001F800440004000000400078000400440B3
:102BF00007C000400400070004C001800600040074
:102C0000060001C0070001C006000000044006C025
:102C1000010006C0044000000410071004E0018019
:102C2000060004000000044005C006400440000007
:102C30000000000004007BE04020000000000000D5
:102C40000000FFF000000000000040207BE00400D6
:102C500000000000400080004000200020004000F4
:102C60000000000000000000000000000000000064
:102C70000000000000001FCC000C0000000000005D
:102C80000000080030006000080030006000000014
:102C9000022003FC1E20022003FC1E200220000054
:102CA00000000E1811043FFF10840C780000000093
:102CB0000F0010840F3800C00778188400780000D7
:102CC00000780F8410C411240E9800E400840008DA
:102CD0000800680070000000000000000000000014
:102CE00000000000000007E0181820044002000067
:102CF000000040022004181807E000000000000057
:102D00000240024001800FF00180024002400000BA
:102D10000080008000800FF80080008000800000AC
:102D20000001000D000E0000000000000000000087
:102D30000000008000800080008000800080008013
:102D40000000000C000C000000000000000000006B
:102D50000000000600180060018006001800200036
:102D6000000007F0080810041004080807F000002D
:102D70000000080408041FFC000400040000000018
:102D800000000E0C10141024104411840E0C0000CE
:102D900000000C1810041104110412880C700000BB
:102DA000000000E00320042408241FFC002400008D
:102DB00000001F9810841104110410881070000086
:102DC000000007F008881104110418880070000042
:102DD00000001C00100010FC13001C00100000007C
:102DE00000000E3811441084108411440E38000085
:102DF00000000700088C10441044088807F0000009
:102E0000000000000000030C030C000000000000A4
:102E100000000000000101060000000000000000AA
:102E20000000008001400220041008081004000087
:102E300002200220022002200220022002200000A4
:102E40000000100408080410022001400080000067
:102E500000000E001200100C106C10800F0000001B
:102E600003E00C1813E4142417C4082807D000004A
:102E70000004003C03C41C40074000E4001C0004A4
:102E800010041FFC1104110411040E8800700000CE
:102E900003E00C1810041004100410081C100000AB
:102EA00010041FFC100410041004080807F00000B0
:102EB00010041FFC1104110417C4100408180000AA
:102EC00010041FFC1104110017C0100008000000BE
:102ED00003E00C181004100410441C78004000009B
:102EE00010041FFC10840080008010841FFC10045C
:102EF0000000100410041FFC100410040000000067
:102F000000030001100110011FFE1000100000005E
:102F100010041FFC110403801464181C100400002A
:102F200010041FFC1004000400040004000C000046
:102F300010041FFC1F0000FC1F001FFC10040000F9
:102F400010041FFC0C04030000E010181FFC10000C
:102F500007F00808100410041004080807F0000027
:102F600010041FFC10841080108010800F000000DF
:102F700007F0081810241024101C080A07F200009B
:102F800010041FFC1104110011C011300E0C0004BC
:102F900000000E1C11041084108410441C38000022
:102FA0001800100010041FFC10041000180000008E
:102FB00010001FF810040004000410041FF8100093
:102FC00010001E0011E0001C007013801C00100097
:102FD0001FC0103C00E01F0000E0103C1FC00000BC
:102FE0001004180C163401C001C01634180C10045B
:102FF00010001C00130400FC13041C00100000004F
:103000000804101C1064108413041C041018000021
:103010000000000000007FFE40024002400200006D
:10302000000030000C0003800060001C0003000062
:1030300000004002400240027FFE0000000000004D
:103040000000000020004000400040002000000080
:103050000001000100010001000100010001000168
:1030600000004000400020000000000000000000C0
:1030700000000098012401440144014400FC0004C4
:1030800010001FFC0088010401040088007000008B
:1030900000000070008801040104010400880000A1
:1030A0000000007000880104010411081FFC0004E6
:1030B000000000F8014401440144014400C800003C
:1030C0000000010401040FFC110411041100180098
:1030D000000000D601290129012901C901060000CB
:1030E00010041FFC008401000100010400FC000426
:1030F00000000104190419FC000400040000000091
:103100000000000300010101190119FE0000000088
:1031100010041FFC0024004001B4010C0104000055
:103120000000100410041FFC000400040000000054
:10313000010401FC0104010001FC0104010000FC88
:10314000010401FC008401000100010400FC0004F2
:10315000000000F8010401040104010400F800006B
:10316000010101FF008501040104008800700000D6
:1031700000000070008801040104010501FF000146
:103180000104010401FC008401040100018000002D
:10319000000000CC01240124012401240198000036
:1031A00000000100010007F8010401040000000014
:1031B000010001F8000400040004010801FC0004FF
:1031C000010001800170000C00100160018001000D
:1031D00001F0010C003001C00030010C01F00100D1
:1031E00000000104018C00740170018C01040000D6
:1031F000010101810171000E0018016001800100D0
:1032000000000184010C013401440184010C000020
:10321000000000000000000001003EFC40024002EF
:103220000000000000000000FFFF000000000000A0
:103230000000400240023EFC0100000000000000CF
:10324000000060008000800040004000200020005E
:10325000000000000000000000000000000000006E
:10326000000000000000000000000000000000005E
:10327000000000000000000000000000000000004E
:103280000000000F80380FFE380F8038000000006B
:10329000000000000000000000000000000001002D
:1032A000000600000C00003800003100000600009D
:1032B0000C0000380000300000000000000000009A
:1032C00061800067F807F98000618000618000611B
:1032D000800061800067F807F980006180000000CD
:1032E00000000000000001C0E003E0F00630080428
:1032F00018081FFFFE040E080787F00381E0000096
:103300000000000001F000060C00040408060C7028
:1033100001F9C0000E00003BE000EC1807080804AB
:103320000C180003E00000000001E00007F003F8C3
:1033300018041C0804170807E1D003C0E00023B0FC
:10334000003C080020080000100000000000000100
:1033500000003100003200001C00000000000000EE
:10336000000000000000000000000000000000005D
:10337000000000000000000000000000000000004D
:103380007F0001FFC00780F00C001810000420002F
:10339000020000000000002000021000040C0018D1
:1033A0000780F001FFC0007F000000000000000067
:1033B0000000000000000000000000004200006665
:1033C00000006600003C0000180003FFC000180069
:1033D000003C0000660000660000420000000000A3
:1033E000080000080000080000080000080001FFB5
:1033F000C0000800000800000800000800000800E5
:1034000000000000000100003100003200001C003C
:1034100000000000000000000000000000000000AC
:103420000000000000000000080000080000080084
:103430000008000008000008000008000008000064
:10344000080000080000000000000000000000006C
:1034500038000038000038000000000000000000C4
:10346000000000000000000000000000000000005C
:10347000000600001C000070000180000E000038F3
:103480000000C0000700001C000030000000000029
:10349000000000007F8001FFE00380700600180438
:1034A000000804000806001803807001FFE0007F98
:1034B000800000000000000000000100080100087A
:1034C00001000803FFF807FFF800000800000800EB
:1034D000000800000000000000000001C03802C029
:1034E00058040098040118040218040418061C1853
:1034F00003F81801E0F800000000000000000001DF
:10350000C0E003C0F0040008040808040808061816
:103510000803F41801E7F00001E0000000000000DB
:10352000000000000300000D000011000061000019
:10353000810803010807FFF80FFFF80001080001E8
:10354000080000000000000000E007FCD0060808AA
:10355000061008061008061008061838060FF006B0
:1035600007C0000000000000000000003F8001FFD5
:10357000E00384300208180410080410080410083E
:10358000071810030FF00007C00000000000000043
:10359000000003C0000700000600000600F8060750
:1035A000F806180006E00007000006000000000012
:1035B00000000001E1E003F7F006341004180804ED
:1035C0001808040C08040C0806161803F3F001C1CF
:1035D000E000000000000000F80003FC30030638A3
:1035E0000402080402080402080404100308F0019D
:1035F000FFC0007F0000000000000000000000008D
:1036000000000000000000007038007038007038C2
:1036100000000000000000000000000000000000AA
:10362000000000000000000000000000301A003020
:103630001C0000000000000000000000000000006E
:10364000000000000000000800001400002200003C
:1036500041000080800100400200200400100800AA
:1036600008000000000000002100002100002100EF
:1036700000210000210000210000210000210000A5
:1036800021000021000000000000000000000800F0
:10369000080400100200200100400080800041006A
:1036A00000220000140000080000000000000003D9
:1036B000C00004C000040000080038080F380808E3
:1036C000380810000C300007E00003C000000000C4
:1036D000000000003F8000FFE0038070020F100632
:1036E000708804C088048308047F8802C0900301A6
:1036F0002000FE400000080000180001F8003E080D
:1037000001C20007020007E20000FE00001FC8001F
:1037100001F800003800000804000807FFF807FF60
:10372000F80408080408080408080408080618082B
:1037300003F41801E7F00001E000000000000000C1
:103740003F8001FFE00380700200180400080400BD
:10375000080400080400100600200780C0000000D4
:1037600004000807FFF807FFF80400080400080435
:10377000000804001802001003807001FFE0007FC1
:103780008000000004000807FFF807FFF80408089D
:10379000040808040808040808043E080400080691
:1037A000001801006000000004000807FFF807FF90
:1037B000F8040808040800040800040800043E0097
:1037C000060000060000018000000000000000006C
:1037D0003F8001FFE0038070060018040008040227
:1037E000080402080203F00783F000020000020050
:1037F00004000807FFF807FFF804080800080000A5
:10380000080000080000080004080807FFF807FF88
:10381000F80400080000000000000400080400088C
:1038200004000807FFF807FFF80400080400080474
:10383000000800000000000000000000000600007A
:103840000700000104000104000104000307FFFE5B
:1038500007FFFC0400000400000400000400080747
:10386000FFF807FFF8040C08001800003E0004C72A
:10387000800503C80600F80400380400180000089A
:1038800004000807FFF807FFF8040008000008001C
:1038900000080000080000080000080000180000F0
:1038A0006000000004000807FFF807800807FC001C
:1038B000007FC00003F80007C000780007800807F9
:1038C000FFF807FFF804000804000807FFF80700E6
:1038D0000803C00000E000003800001E00000700E0
:1038E0000001C00400F007FFF80400000000000021
:1038F0007F8001FFE00380700600180400080400C8
:103900000806001803003001FFE0007F800000007F
:1039100004000807FFF807FFF80404080404000483
:103920000400040400040400060C0003F80001F085
:1039300000000000000000007F8001FFE0038070B5
:103940000600880400880400C806003C03003E010D
:10395000FFE6007F8400000004000807FFF807FF6F
:10396000F8040808040800040C00040F00040BC04D
:103970000610F003F03801E0080000080000000124
:10398000E0F803F030063010041808041808040C9E
:1039900008040C080206180207F00781E000000086
:1039A0000180000600000400000400000400080775
:1039B000FFF807FFF80400080400000400000600F8
:1039C0000001800004000007FFE007FFF00400187A
:1039D00000000800000800000800000800000804BB
:1039E000001007FFE004000004000006000007E0EC
:1039F0000007FE00041FE00001F80000380001E0AD
:103A0000043E0007C0000600000400000400000798
:103A1000E00007FFC0041FF80007C007F80007FF19
:103A200080043FF80007C004F8000700000400000D
:103A300000000004000806001807C07805F1C8005F
:103A40003E00001F800463E80780F80600180400A9
:103A50000800000004000006000007800007E008DE
:103A6000047C08001FF80007F800180804E00807A5
:103A7000000006000004000000000001000806002D
:103A8000380400F80403E8040F08047C0805F00873
:103A900007C00807001804006000000000000000D4
:103AA00000000000000000000000003FFFFE2000BA
:103AB000022000022000022000022000020000007C
:103AC00000000000000008000007000000C0000027
:103AD00038000006000001C000003000000E0000A9
:103AE0000100000000000000000020000220000291
:103AF0002000022000022000023FFFFE0000000024
:103B000000000000000000000000000000000000B5
:103B1000000800001000003000002000003000000D
:103B2000100000080000000000000000000001007C
:103B30000001000001000001000001000001000080
:103B4000010000010000010000010000010000016F
:103B50000000000000000000002000002000001015
:103B60000000100000000000000000000000000045
:103B7000000000000000000000F00019F8001B1811
:103B8000002208002608002408002410003FF80046
:103B90001FF800000800001800000004000007FFE4
:103BA000F80FFFF000181800100800200800200887
:103BB000003018001FF0000FC000000000000000DF
:103BC00007C0001FF0001830002008002008002067
:103BD00008003C08001C100000600000000000000D
:103BE0000000000007C0001FF00038180020080087
:103BF000200800200804101007FFF80FFFF0000055
:103C0000100000000000000000000007C0001FF0CE
:103C1000001230002218002208002208003208009A
:103C20001E10000E200000000000000020000020F8
:103C30000800200801FFF803FFF806200804200808
:103C4000042008072000030000000000000000001E
:103C5000000E000E6E001FF30031B10020B10020F5
:103C6000B1003191001F13002E1E00200E00300005
:103C700000000004000807FFF80FFFF8001008001C
:103C80002000002000002008003FF8001FF800007E
:103C900008000000000000000000002008002008CC
:103CA000002008063FF8063FF80000080000080062
:103CB00000080000000000000000000000000000FC
:103CC00003000003002001002001002003063FFE46
:103CD000063FFC000000000000000000000000049F
:103CE000000807FFF80FFFF8000188000300002F0D
:103CF000C00038F80020380020080000080000004C
:103D00000000000000000400080400080400080788
:103D1000FFF80FFFF800000800000800000800008E
:103D200000000000002008003FF8003FF8001008E5
:103D3000002000003FF8003FF800100800200000BD
:103D40003FF8003FF8000008000000002008003F96
:103D5000F8003FF8001008001000002000002008C4
:103D6000003FF8001FF800000800000000000000FD
:103D700007C0000FF00018300030080020080020B5
:103D800008003008001830000FF00007C0000000E5
:103D9000000000002001003FFF003FFF0010110065
:103DA0002009002008002008003038001FF0000F14
:103DB000C00000000000000007C0001FF00038181D
:103DC000002008002008002009001011001FFF003B
:103DD0003FFF000001000000002008002008002034
:103DE00008003FF8003FF80008080010080020080D
:103DF0000020000030000030000000000000000043
:103E00000000000C78001E18003308002308002171
:103E1000080021880021980030F000386000000080
:103E200000000000200000200000200000FFF00340
:103E3000FFF80020080020080020080000300000E3
:103E400000000000000000002000003FF0007FF8AC
:103E5000000018000008000008002010003FF800D3
:103E60007FF0000010000000000000002000003083
:103E700000003C00003F800023F00000780000704C
:103E8000002380003C0000300000200000200000E3
:103E90003C00003FE00023F80000E0002700003E67
:103EA00000003FE00021F80001E0003E000020009B
:103EB000000000002008002008003838003E68009C
:103EC00027800003C8002CF8003838002018002094
:103ED00008000000000000002000003003003C014A
:103EE000003F830023EC000070002380003C0000B2
:103EF000200000200000000000000000000000384A
:103F0000080020380020F80023E8002F88003E0831
:103F100000380800201800007000000000000000B9
:103F20000000000000000000000000000800001475
:103F3000001FF7FC30000620000200000000000017
:103F40000000000000000000000000000000000071
:103F50000000FFFFFF000000000000000000000064
:103F600000000000000000000000200002300006F9
:103F70001FF7FC0014000008000000000000000013
:103F800000000000000000000000001800006000B9
:103F90000040000040000020000010000008000069
:103FA0000400000400000C00001000002008241091
:103FB000226021802641393202040C18F0601380FF
:103FC0001060101814041802000100000200020220
:103FD000420433F8000400023FF220224042000273
:103FE0003FFE204220223FC2000200003132333423
:103FF0003537383930000000313134353134000084
:1040000039383139386535353839626133353234CC
:104010006331346262353562663534363435616415
:104020003835366365636361633063333134383503
:10403000626639393037386336366335373235376B
:1040400000000000246F632F646576696365732F39
:104050007B363763343639633038653034616130EC
:104060003639306239383436655F3137343131367C
:10407000303735333331327D2F7379732F70726F50
:10408000706572746965732F7265706F7274000069
:104090007B5C2273657276696365735C223A5B7B35
:1040A0005C22736572766963655F69645C223A5C61
:1040B00022536D6F67655C225C2C5C2270726F709E
:1040C0006572746965735C223A7B5C224C6967682F
:1040D000745C223A25645C2C5C2254656D705C2211
:1040E0003A25645C2C5C2248756D5C223A25645C40
:1040F0002C5C22434F5C223A25645C2C5C22466592
:10410000655C223A25645C2C5C22536D675C223A24
:1041100025647D7D5D7D00003841000800000020A1
:1041200050000000981A0008884100085000002044
:10413000E0110000A81A0008F83F0008EC3F000852
:1041400044400008010101000100010000003200AC
:10415000050000000000000000000000000000005A
:10416000000000000A00000000000000010203043B
:104170000102030406070809020406080100000002
:08418000000000000000000037
:04000005080000ED02
:00000001FF
